:100000000C9435000C945D000C945D000C94A900D8
:100010000C94A9000C94A9000C945D000C945D0054
:100020000C945D000C945D000C945D000C945D00DC
:100030000C945D000C945D000C945D000C945D00CC
:100040000C945F000C945D000C945D000C945D00BA
:100050000C945D000C945D000C945D000C945D00AC
:100060000C945D000C945D00FD0011241FBECFEFC9
:10007000D8E0DEBFCDBF21E0A6E0B1E001C01D9217
:10008000A731B207E1F711E0A0E0B1E0E8E8F4E061
:1000900002C005900D92A630B107D9F710E0C5E374
:1000A000D0E004C02197FE010E940F01C433D107A4
:1000B000C9F70E94B3000C9442020C9400001F92F6
:1000C0000F920FB60F9211242F933F938F939F930C
:1000D000AF93BF9380910F0190911001A0911101F6
:1000E000B091120130910E0123E0230F2D3720F43F
:1000F0000196A11DB11D05C026E8230F0296A11D82
:10010000B11D20930E0180930F0190931001A093D5
:100110001101B093120180910A0190910B01A091FD
:100120000C01B0910D010196A11DB11D80930A0132
:1001300090930B01A0930C01B0930D01BF91AF916F
:100140009F918F913F912F910F900FBE0F901F9015
:1001500018951F920F920FB60F9211240F900FBE99
:100160000F901F901895789484B5826084BD84B5F3
:10017000816084BD85B5826085BD85B5816085BDA2
:1001800080916E00816080936E001092810080915A
:1001900081008260809381008091810081608093E2
:1001A0008100809180008160809380008091B10007
:1001B00084608093B1008091B00081608093B00032
:1001C00080917A00846080937A0080917A008260C6
:1001D00080937A0080917A00816080937A00809188
:1001E0007A00806880937A001092C100C0E0D0E06D
:1001F0002097F1F30E940000FBCF8EE290E00E9476
:100200001501FC01009751F093A782A795A784A739
:1002100011A610A690930901809308010895EE0F8E
:10022000FF1F0590F491E02D0994CF93DF93823066
:10023000910510F482E090E0E0911501F091160133
:1002400020E030E0C0E0D0E0309711F140815181F2
:1002500048175907C0F04817590761F48281938104
:10026000209719F09B838A832BC09093160180936B
:10027000150126C02115310519F04217530718F44E
:100280009A01BE01DF01EF010280F381E02DDCCF96
:100290002115310509F1281B390B2430310590F463
:1002A00012968D919C9113976115710521F0FB01B8
:1002B0009383828304C09093160180931501FD01FE
:1002C000329644C0FD01E20FF31F819391932250B7
:1002D00031092D933C933AC02091130130911401C0
:1002E000232B41F42091020130910301309314013A
:1002F0002093130120910001309101012115310556
:1003000041F42DB73EB74091040150910501241BE3
:10031000350BE0911301F0911401E217F307A0F4FB
:100320002E1B3F0B2817390778F0AC014E5F5F4F4B
:100330002417350748F04E0F5F1F50931401409368
:1003400013018193919302C0E0E0F0E0CF01DF91CF
:10035000CF9108950F931F93CF93DF93009709F4E4
:100360008CC0FC013297138212820091150110910A
:1003700016010115110581F420813181820F931F2F
:1003800020911301309114012817390779F5F09362
:100390001401E093130171C0D80140E050E0AE17A2
:1003A000BF0750F412962D913C911397AD01211582
:1003B000310509F1D901F3CF9D01DA01338322839D
:1003C00060817181860F971F8217930769F4EC0192
:1003D00028813981260F371F2E5F3F4F31832083BD
:1003E0008A819B8193838283452B29F4F0931601A4
:1003F000E093150142C01396FC93EE931297ED0122
:10040000499159919E01240F351FE217F30771F4AA
:1004100080819181840F951F029611969C938E93F3
:100420008281938113969C938E931297E0E0F0E083
:10043000D80112968D919C911397009719F0F801AD
:100440008C01F6CF8D919C9198012E5F3F4F820FCA
:10045000931F20911301309114012817390769F473
:10046000309729F4109216011092150102C01382E0
:1004700012821093140100931301DF91CF911F9109
:080480000F910895F894FFCFDD
:06048800000017018000D6
:00000001FF
